:020000040800F2
:1000000000000520A1020008C50C0008C70C00086C
:10001000C90C0008CB0C0008CD0C00080000000043
:10002000000000000000000000000000CF0C0008ED
:10003000D10C000800000000D30C0008D50C00080B
:10004000F1020008F1020008F1020008F1020008C4
:10005000F1020008F1020008F1020008F1020008B4
:10006000F1020008F1020008F1020008F1020008A4
:10007000F1020008F1020008B5050008E1050008DA
:100080000D06000839060008F1020008F102000818
:10009000F1020008F1020008F1020008F102000874
:1000A000F1020008F1020008F1020008F102000864
:1000B000F1020008F1020008F102000869060008D8
:1000C000F90600086D060008FB060008F1020008AA
:1000D000F1020008F1020008F1020008F102000834
:1000E000F1020008F1020008F1020008F102000824
:1000F000F1020008F1020008F1020008F102000814
:10010000F1020008F1020008F1020008F102000803
:10011000F1020008F1020008F1020008F1020008F3
:10012000F1020008F1020008F1020008F1020008E3
:10013000F1020008F1020008F1020008F1020008D3
:10014000F1020008F1020008F1020008F1020008C3
:10015000F1020008F1020008F1020008F1020008B3
:10016000F1020008F1020008F1020008F1020008A3
:10017000F1020008F1020008F1020008F102000893
:10018000F1020008F1020008F1020008F102000883
:10019000F1020008F1020008F1020008F102000873
:0C01A000F1020008F1020008F102000862
:1001AC00034613F8012B002AFBD1181A01387047AB
:1001BC000348044B834202D0034B03B118477047EA
:1001CC004C0000204C000020000000000548064BAD
:1001DC001B1AD90F01EBA301491002D0034B03B139
:1001EC00184770474C0000204C0000200000000015
:1001FC0010B5064C237843B9FFF7DAFF044B13B163
:10020C000448AFF300800123237010BD4C00002084
:10021C0000000000B421000808B5054B1BB10549CE
:10022C000548AFF30080BDE80840FFF7CFBF00BF23
:10023C000000000050000020B421000870B50D4DE6
:10024C000D4C641BA4100026A64209D10B4D0C4C7E
:10025C0001F0AAFF641BA4100026A64205D170BDB4
:10026C0055F8043B98470136EEE755F8043B9847A0
:10027C000136F2E7142200081422000814220008A8
:10028C001822000802440346934200D1704703F839
:10029C00011BF9E7DFF834D000F01AFD0C480D49CA
:1002AC000D4A002302E0D458C4500433C4188C42C5
:1002BC00F9D30A4A0A4C002301E013600432A2422B
:1002CC00FBD3FFF7BBFF00F05DFCFEE70000052051
:1002DC00000000204C0000201C2200084C000020D4
:1002EC00B0000020FEE700B500F00700C0F1070CDD
:1002FC00BCF1040F28BF4FF0040C031D062B0FD9C3
:10030C00C31E4FF0FF3E0EFA0CF021EA000199409B
:10031C000EFA03FE22EA0E0241EA02005DF804FB2B
:10032C000023EEE730B583B0224B9A6C42F0010209
:10033C009A649B6C03F001030193019B1E4DE868CA
:10034C0000220121C0F30220FFF7CDFF0001C0B253
:10035C001A4C84F80E034FF480432360E8680022A3
:10036C000121C0F30220FFF7BEFF0001C0B284F8E8
:10037C000F034FF400432360E86800220121C0F30F
:10038C000220FFF7B0FF0001C0B284F810034FF455
:10039C0080332360E86800220121C0F30220FFF7BC
:1003AC00A2FF0001C0B284F811034FF400332360A4
:1003BC0003B030BD0010024000ED00E000E100E0B1
:1003CC0000B589B00023029303930493059306931D
:1003DC00079303F1804303F50433DA6C42F0800297
:1003EC00DA64DA6C02F080020192019ADA6C42F063
:1003FC000202DA64DB6C03F002030093009B0648F4
:10040C004FF48043836202930123039302A901F00A
:10041C003CFE09B05DF804FB0004004810B4164B18
:10042C009967196F6FF30F011143196713490C6822
:10043C0044F480440C60DC6E44F00204DC66DC6E38
:10044C0044F00104DC66120402F47F02104340F015
:10045C00007040F400504B6823F07F7323F45F333B
:10046C0023F47F7323F0030318434860044B0022EA
:10047C001A705DF8044B70470000024000540040B5
:10048C006B00002010B41A4BC3F88C10D3F88410F6
:10049C006FF30F011143C3F8841016490C6844F430
:1004AC0000440C60D3F8804044F00204C3F8804050
:1004BC00D3F8804044F00104C3F88040120402F4E5
:1004CC007F02104340F0007040F410504B6823F052
:1004DC007F7323F45F3323F47F7323F003031843F8
:1004EC004860054B00221A705DF8044B704700BF42
:1004FC0000000240005400406A000020054A1368C6
:10050C0043F0080313600023034A1370034A13706B
:10051C00704700BF005800406900002068000020B0
:10052C000D4B5866DA6D6FF30F021143D9659A6D56
:10053C0022F001029A6509490A6842F400420A60F5
:10054C009A6D42F002029A659A6D42F001029A6528
:10055C00034B00221A707047000002400058004004
:10056C00680000200D4B18659A6C6FF30F02114355
:10057C0099645A6C22F001025A6409490A6842F4DF
:10058C0080420A605A6C42F002025A645A6C42F081
:10059C0001025A64034B00221A707047000002409B
:1005AC000058004069000020084B1B6813F4005FE2
:1005BC000AD0064B4FF400525A605A6C22F00102DA
:1005CC005A64034B01221A70704700BF00000240AE
:1005DC0069000020084B1B6813F4003F0AD0064B3F
:1005EC004FF400325A609A6D22F001029A65034B67
:1005FC0001221A70704700BF000002406800002002
:10060C00084B1B6813F4001F0AD0064B4FF4001262
:10061C005A60DA6E22F00102DA66034B01221A707C
:10062C00704700BF000002406B000020094B1B68A4
:10063C0013F0007F0CD0074B4FF000725A60D3F8C8
:10064C00802022F00102C3F88020034B01221A7093
:10065C00704700BF000002406A0000207047000095
:10066C0008B51C4B9B6913F0080F0DD0194BDA69B8
:10067C0042F00802DA619B6913F4803F19D1164AE3
:10068C00936D43F001039365124B9B6913F0200F9C
:10069C000ED0104AD36943F02003D3610F4B1B7863
:1006AC00DBB2012B0BD00E4B1B78DBB2012B0BD02A
:1006BC0008BD094A536C43F001035364E4E720215D
:1006CC000848FFF72DFFEEE720210748FFF74AFF08
:1006DC00EEE700BF00580040000002406800002018
:1006EC00690000206C00002000000020704770475B
:1006FC0072B6FEE730B5B3B000212B912C912D9141
:10070C002E912F91309131912591269127912891FD
:10071C0029912A918C2202A8FFF7B4FD4023029361
:10072C0002A801F0E3F9002840F0DC80704CE36C87
:10073C0043F00203E364E36C03F002030193019BB7
:10074C004FF440732593022326930323279301230D
:10075C0028930023299304232A9325A9654801F0A3
:10076C0094FCA36D43F40013A365A36D03F4001371
:10077C000093009B604BD3F8A82022F070624FF0DE
:10078C00706393FAA3F3002B00F0AE80B3FA83F3FB
:10079C00032101FA03F31A43574BC3F8A820D3F8EB
:1007AC00802022F4804222F01002C3F88020D3F87B
:1007BC00802022F4405242F40052C3F88020D3F837
:1007CC00802022F02002C3F88020D3F8802022F071
:1007DC004002C3F88020D3F8802042F08002C3F896
:1007EC008020D3F8802022F44072C3F88020D3F804
:1007FC00802022F44062C3F88020D3F8A82022F491
:10080C0070024FF4700393FAA3F3002B6ED0B3FA7B
:10081C0083F3032101FA03F31A43374BC3F8A820DF
:10082C00DA6E22F4804222F0100242F01002DA66F4
:10083C00DA6E22F4405242F40052DA66DA6E22F09A
:10084C002002DA66DA6E22F04002DA66DA6E42F0E4
:10085C008002DA66DA6E22F44072DA66DA6E22F41C
:10086C004062DA66254DE8680022C0F30220FFF7EB
:10087C003AFD0001C0B2224C84F81F034FF0004334
:10088C002360E86800220221C0F30220FFF72BFD51
:10089C000001C0B284F8200301236360194C636823
:1008AC0043F000736360E36823F40043E360236860
:1008BC0023F400232360236823F4003323600023F4
:1008CC002B93114A2C922D932E932F93309331937B
:1008DC002BA9204601F01DFCE3686FF34A03E3608B
:1008EC0033B030BDFFF704FF202351E7202390E7FE
:1008FC0000100240000400480000024000ED00E03F
:10090C0000E100E000540040E39BD00030B5B3B0F0
:10091C0000212B912C912D912E912F913091319171
:10092C00259126912791289129912A918C2202A810
:10093C00FFF7A8FC8023029302A801F0D7F8002847
:10094C0040F0CD80694CE36C43F00203E364E36C4C
:10095C0003F002030193019B4FF4406325930223A0
:10096C0026930323279301232893002329930423FD
:10097C002A9325A95E4801F088FBA36D43F48003FC
:10098C00A365A36D03F480030093009B594BD3F82C
:10099C00A82022F470424FF4704393FAA3F3002B77
:1009AC0000F09F80B3FA83F3032101FA03F31A4397
:1009BC00504BC3F8A8205A6C22F4804222F010024B
:1009CC0042F010025A645A6C22F4405242F48052A3
:1009DC005A645A6C22F020025A645A6C22F040027B
:1009EC005A645A6C42F080025A645A6C22F4407277
:1009FC005A645A6C22F440625A64D3F8A82022F448
:100A0C0070224FF4702393FAA3F3002B6BD0B3FA3C
:100A1C0083F3032101FA03F31A43364BC3F8A820DE
:100A2C009A6D22F4804222F010029A659A6D22F49B
:100A3C00405242F480529A659A6D22F020029A65D7
:100A4C009A6D22F040029A659A6D42F080029A6586
:100A5C009A6D22F440729A659A6D22F440629A65FE
:100A6C00254DE8680022C0F30220FFF73CFC000192
:100A7C00C0B2224C84F8210302216160E868002294
:100A8C00C0F30220FFF72FFC0001C0B284F8220350
:100A9C00042363601A4C636843F000736360E3687B
:100AAC0023F40043E360236823F4002323602368CA
:100ABC0023F40033236000232B93124A2C922D93A2
:100ACC002E9350222F92309331932BA9204601F074
:100ADC0020FBE3686FF34A03E36033B030BDFFF7EC
:100AEC0007FE202360E7202393E700BF001002409D
:100AFC00000400480000024000ED00E000E100E0CE
:100B0C0000580040E39BD00000B597B04422002170
:100B1C0005A8FFF7B7FB00230093019302930393FF
:100B2C0004934FF4007000F099F920BB0223059355
:100B3C004FF480720892402209920F931093012275
:100B4C0011920A22129213931493159305A800F094
:100B5C006FFA90B90F230093032301938023029320
:100B6C000023039304930221684600F09FFD30B9E3
:100B7C0017B05DF804FBFFF7BBFDFFF7B9FDFFF7FE
:100B8C00B7FD000008B500F0D5F8FFF7BDFFFFF783
:100B9C0017FCFFF7C7FBFFF7ADFDFFF7B7FEFFF73D
:100BAC00ADFC20213148FFF7BBFC20213048FFF77A
:100BBC00D9FC642001F0E3FA2E4C2046FFF7F0FA42
:100BCC0082B221465020FFF729FC2B4B1B78DBB25D
:100BDC00012BFAD1642001F0D2FA2548FFF7E0FA94
:100BEC0082B226495020FFF74DFC254B1B78DBB217
:100BFC00012BFAD123494B691A0402F08042DB43E2
:100C0C0003F4804313438B611B4B1B78DBB2012B2A
:100C1C00FAD11B4B1B78DBB2012BF5D10023164A02
:100C2C001370174A13704FF47A7001F0A8FA114C34
:100C3C002046FFF7B5FA82B221465020FFF7EEFBB3
:100C4C0010494B691A0402F08042DB4303F48043E1
:100C5C0013438B61642001F092FA0548FFF7A0FA68
:100C6C0082B206495020FFF70DFCCDE76C00002046
:100C7C0000000020200000206B0000208C000020D1
:100C8C006A0000200004004882B00A4B1A6E42F041
:100C9C0001021A661A6E02F001020092009A9A6D15
:100CAC0042F080529A659B6D03F080530193019B37
:100CBC0002B0704700100240FEE7FEE7FEE7FEE7D9
:100CCC00FEE770477047704708B500F043F808BD61
:100CDC00034AD2F8883043F47003C2F88830704766
:100CEC0000ED00E0104B1B780BB90120704710B5DC
:100CFC0004464FF47A70B0FBF3F30C4A1068B0FB67
:100D0C00F3F000F08FF868B90F2C01D901200AE03C
:100D1C00002221464FF0FF3000F074F8044B1C60A9
:100D2C00002000E0012010BD440000204000002005
:100D3C004800002010B5032000F052F80F20FFF7F8
:100D4C00D1FF10B10124204610BD0446FFF79CFFD3
:100D5C00F9E70000034B1B78034A11680B4413603E
:100D6C00704700BF44000020AC000020014B186805
:100D7C00704700BFAC000020002808DB0901C9B295
:100D8C0000F1604000F5614080F80013704700F0FE
:100D9C000F000901C9B2014B1954704714ED00E062
:100DAC0000B500F00700C0F1070CBCF1040F28BF20
:100DBC004FF0040C031D062B0FD9C31E4FF0FF3E42
:100DCC000EFA0CF021EA000199400EFA03FE22EA19
:100DDC000E0241EA02005DF804FB0023EEE700007E
:100DEC00074AD36823F4E0631B041B0C000200F4D5
:100DFC00E060034343F0BF6343F40033D3607047B8
:100E0C0000ED00E010B50446054BD868C0F3022095
:100E1C00FFF7C6FF01462046FFF7AEFF10BD00BF2F
:100E2C0000ED00E00138B0F1807F0BD24FF0E023F1
:100E3C005861054AF02182F823100020986107229E
:100E4C001A6170470120704700ED00E0024B1868F2
:100E5C0000F4C060704700BF00700040B0F5007F28
:100E6C000FD01F4B1B6803F4C063B3F5806F34D0F5
:100E7C001B4A136823F4C06343F48063136000209F
:100E8C007047174B1B6803F4C063B3F5007F20D089
:100E9C00134A136823F4C06343F400731360114BBB
:100EAC001B68322202FB03F30F4AA2FB03239B0CA9
:100EBC00013300E0013B0A4A526912F4806F01D001
:100ECC00002BF7D1064B5B6913F4806F03D1002024
:100EDC00704700207047032070470020704700BF08
:100EEC00007000404000002083DE1B4330B583B00F
:100EFC000446204B9B6D13F0805F0BD0FFF7A6FFD1
:100F0C00B0F5007F17D0802C1FD82DD0702C2DD091
:100F1C0000211BE0174DAB6D43F08053AB65AB6DFF
:100F2C0003F080530193019BFFF790FFAB6D23F00F
:100F3C008053AB65E4E7802C03D9A02C03D90221A4
:100F4C0004E0002102E0012100E003210A4A1368B9
:100F5C0023F007030B431360136803F007038B4262
:100F6C0006D1002003B030BD0221EFE70121EDE7EF
:100F7C000120F7E70010024000200240284A936845
:100F8C00D26802F0030213F00C030AD00C2B06D02B
:100F9C00042B1FD0082B20D00020024610E0012A81
:100FAC00F6D11F4A126812F0080F0CD11C4AD2F865
:100FBC009420C2F303221B4951F8222043B1002094
:100FCC000C2B0DD07047164A1268C2F30312F2E7CD
:100FDC001046F5E714480022F2E714480022EFE728
:100FEC000F4BDB6803F00303022B03D0032B02D15E
:100FFC000E4A00E00C4A0A49CB68C3F302130133D2
:10100C00C868C0F3062002FB00F0B0FBF3F0CB681D
:10101C00C3F3416301335B00B0FBF3F0D2E700BFD5
:10102C0000100240CC2100080024F40000127A00C9
:10103C00002800F02283F0B583B00446964B9D68DF
:10104C0005F00C05DE6806F00306036813F0100FBC
:10105C005AD0E5B10C2D18D0A369002B00F0BB8041
:10106C008D4A136843F001031360FFF77FFE0746B8
:10107C00894B1B6813F0020F40F09A80FFF776FE45
:10108C00C01B0228F4D9032002E3012EE4D1824BC9
:10109C001B6813F0020F03D0A369002B00F0EF8242
:1010AC00206A7D4B1B6813F0080F5BD07A4B1B68D2
:1010BC0003F0F00398425CD8774B1A6842F00802B0
:1010CC001A601A6822F0F002216A0A431A605A6800
:1010DC0022F47F42E16942EA01225A60002D60D07D
:1010EC00FFF74CFF6C4B9B68C3F303136B4AD35C49
:1010FC0003F01F03D8406A4B18606A4B1868FFF75F
:10110C00F1FD002840F0C482236813F0010F00F0B9
:10111C008180082D75D00C2D71D06368B3F5803F9C
:10112C0000F09780B3F5A02F00F099805A4B1A6805
:10113C0022F480321A601A6822F480221A606368E2
:10114C00002B00F09980FFF711FE0746524B1B68ED
:10115C0013F4003F5ED1FFF709FEC01B6428F5D9DC
:10116C00032095E24C4BD3F894301B0903F0F003A9
:10117C00A0E7FFF7BBFE002840F08382464B1A68BD
:10118C0042F008021A601A6822F0F002216A0A433F
:10119C001A605A6822F47F42E16942EA01225A60DD
:1011AC009EE7206AFFF7A2FE002899D001206FE28B
:1011BC00394B1A6842F008021A601A6822F0F002E1
:1011CC00216A0A431A605A6822F47F42E16942EAB2
:1011DC0001225A6098E7304A136823F00103136028
:1011EC00FFF7C4FD07462C4B1B6813F0020F8BD086
:1011FC00FFF7BCFDC01B0228F5D9032048E2032EE3
:10120C008BD1254B1B6813F4003F03D06368002B74
:10121C0000F03982236813F0020F58D0042D45D00A
:10122C000C2D41D0E368002B77D01B4A136843F494
:10123C0080731360FFF79AFD0646174B1B6813F477
:10124C00806F61D1FFF792FD801B0228F5D9032036
:10125C001EE2114A136843F4803313606FE703F105
:10126C008043A3F53C331A6842F480221A601A6852
:10127C0042F480321A6062E7FFF778FD0746064BAE
:10128C001B6813F4003FC5D0FFF770FDC01B64282A
:10129C00F5D90320FCE100BF00100240FC2100083E
:1012AC004000002048000020022EBBD1A74B1B6839
:1012BC0013F4806F03D0E368002B00F0E681A34A9F
:1012CC00536823F0FE43216943EA016353602368AA
:1012DC0013F0080F4CD063699BB39C4AD2F894303E
:1012EC0043F00103C2F89430FFF740FD0646974BDC
:1012FC00D3F8943013F0020F3AD1FFF737FD801B6F
:10130C000228F4D90320C3E1904A536823F0FE432A
:10131C00216943EA01635360D9E78C4A136823F4CB
:10132C0080731360FFF722FD0646884B1B6813F48D
:10133C00806FCCD0FFF71AFD801B0228F5D9032053
:10134C00A6E1824AD2F8943023F00103C2F894301B
:10135C00FFF70CFD06467D4BD3F8943013F0020FCB
:10136C0006D0FFF703FD801B0228F4D903208FE180
:10137C00236813F0040F7AD0744B9B6D13F0805FCD
:10138C0036D1724B9A6D42F080529A659B6D03F088
:10139C0080530193019B01266D4B1B6813F4807FD6
:1013AC0028D0A368012B39D0052B3FD0674BD3F83D
:1013BC00902022F00102C3F89020D3F8902022F064
:1013CC000402C3F89020A368002B3DD0FFF7CEFC9D
:1013DC0007465E4BD3F8903013F0020F46D1FFF75F
:1013EC00C5FCC01B41F288339842F2D903204FE16F
:1013FC000026D1E7564A136843F480731360FFF755
:10140C00B5FC0746524B1B6813F4807FC9D1FFF71C
:10141C00ADFCC01B0228F5D9032039E14B4AD2F8A8
:10142C00903043F00103C2F89030CCE7474BD3F82F
:10143C00902042F00402C3F89020D3F8902042F0A0
:10144C000102C3F89020BEE7FFF790FC07463F4B24
:10145C00D3F8903013F0020F08D0FFF787FCC01BB5
:10146C0041F288339842F2D9032011E1E6B923689E
:10147C0013F0200F35D0636AE3B1344AD2F89830B8
:10148C0043F00103C2F89830FFF770FC06462F4B6F
:10149C00D3F8983013F0020F23D1FFF767FC801BB1
:1014AC000228F4D90320F3E0284A936D23F08053EB
:1014BC009365DCE7254AD2F8983023F00103C2F893
:1014CC009830FFF753FC0646204BD3F8983013F0B6
:1014DC00020F06D0FFF74AFC801B0228F4D9032028
:1014EC00D6E0A36A002B00F0D280022B17D00C2D73
:1014FC0000F0D480154A136823F080731360FFF753
:10150C0035FC0446114B1B6813F0007F00F0AE80D5
:10151C00FFF72CFC001B0228F4D90320B8E00B4B7E
:10152C00DB6803F00301E26A914213D00C2D00F04A
:10153C00B180064B1B6813F0806F40F0AD80034BFD
:10154C001B6813F0805F2FD00120A1E00010024037
:10155C000070004003F07002216B0139B2EB011FE7
:10156C00E4D103F4FE42616BB2EB012FDED103F048
:10157C007842A16BB2EBC16FD8D103F4C001E26B1E
:10158C005208013AB1EB425FD0D103F0C063226C38
:10159C005208013AB3EB426FC8D1414B1B6813F0B0
:1015AC00007F49D0002073E03D4A136823F080731C
:1015BC001360FFF7DBFB0546394B1B6813F0007F0C
:1015CC0006D0FFF7D3FB401B0228F5D903205FE0C0
:1015DC00334AD36833491940E36A206B013843EA34
:1015EC000013606B43EA0023E06B4008013843EAC8
:1015FC004053206C4008013843EA4063A06B43EA37
:10160C00C0631943D160136843F080731360D368CF
:10161C0043F08073D360FFF7A9FB0446204B1B6893
:10162C0013F0007F06D1FFF7A1FB001B0228F5D9B0
:10163C0003202DE000202BE0194B1A6842F0807239
:10164C001A60DA6842F08072DA60FFF78FFB0446AA
:10165C00134B1B6813F0007F06D1FFF787FB031BAE
:10166C00022BF5D9032013E0002011E00C4AD168BD
:10167C000D4B0B40D36000200AE001207047012085
:10168C0006E0012004E0012002E0012000E000203F
:10169C0003B0F0BD0120FBE70120F9E70120F7E7DB
:1016AC00001002408C809D01FCFFEEFE002800F033
:1016BC00AF8070B50D460446594B1B6803F0070309
:1016CC008B420BD2564A136823F007030B4313606B
:1016DC00136803F007038B4240F09C80236813F0DF
:1016EC00020F0CD0A2684F4B9B6803F0F0039A4298
:1016FC0005D94C498B6823F0F0031A438A602368A0
:10170C0013F0010F39D06368032B09D0022B26D0BC
:10171C0063BB444A126812F0020F06D1012076E036
:10172C00404A126812F0007F76D03E498A6822F057
:10173C00030213438B60FFF719FB0646394B9B687A
:10174C0003F00C036268B3EB820F16D0FFF70EFBAD
:10175C00801B41F288339842F0D9032057E0314A7C
:10176C00126812F4003FE0D1012050E02D4A1268BB
:10177C0012F4806FD9D1012049E0236813F0020FD5
:10178C000CD0A268274B9B6803F0F0039A4205D259
:10179C0024498B6823F0F0031A438A60204B1B68A2
:1017AC0003F00703AB420AD91D4A136823F0070361
:1017BC002B431360136803F00703AB422ED123684D
:1017CC0013F0040F06D0174A936823F4E063E16822
:1017DC000B439360236813F0080F07D0114A9368EA
:1017EC0023F46053216943EAC1039360FFF7C6FBFE
:1017FC000C4B9B68C3F303130B4AD35C03F01F031E
:10180C00D8400A4B18600A4B1868FFF76BFA70BD8A
:10181C00012070470120FAE70120F8E70120F6E7E4
:10182C000020024000100240FC2100084000002073
:10183C0048000020F8B504460D46594BDB6813F000
:10184C00030F18D0564BDB6803F003030268934276
:10185C0002D001263046F8BD002A00F09C80504B87
:10186C00DB68C3F3021301334268934201D00126B3
:10187C00F0E7002619E00368022B55D0032B5AD051
:10188C00012B40F08A80464A126812F0020F5ED09B
:10189C004348C26822F073026168013943EA0113BC
:1018AC001343C3600026002ED4D13D4A136823F0A5
:1018BC0080631360FFF75AFA0746394B1B6813F025
:1018CC00006F05D0FFF752FAC31B022BF5D9032684
:1018DC00002EBFD1002D3CD131490B6923F0784348
:1018EC0023F4FE43A068E268D20642EA00221343C6
:1018FC000B612B4A136843F080631360FFF736FAD1
:10190C000546274B1B6813F0006F05D1FFF72EFA25
:10191C00401B0228F5D90326002E9BD1204A1369BF
:10192C00A1690B43136195E71D4A126812F4806F8D
:10193C00AED101268EE71A4A126812F4003FA7D1E5
:10194C00174A126812F4802FA2D1012682E70126D1
:10195C00A9E7012D0FD01248026922F0C06222F4CF
:10196C00FE42A16863695B08013B5B0643EA012305
:10197C001A430261BDE70A48026922F4C00222F44C
:10198C00FE42A16823695B08013B5B0543EA012326
:10199C001A430261ADE701265CE701265AE700BF56
:1019AC0000100240F8B504460D464F4BDB6813F0AF
:1019BC00030F18D04C4BDB6803F00303026893420F
:1019CC0002D001263046F8BD002A00F08980464B33
:1019DC00DB68C3F3021301334268934201D0012642
:1019EC00F0E7002618E00368022B54D0032B59D0E3
:1019FC00012B77D13C4A126812F0020F5ED03A48A4
:101A0C00C26822F073026168013943EA011313437F
:101A1C00C3600026002ED5D1334A136823F08053BF
:101A2C001360FFF7A3F907462F4B1B6813F0005FF9
:101A3C0005D0FFF79BF9C31B022BF5D90326002E0B
:101A4C00C0D1002D3CD128494B6923F0784323F4B5
:101A5C00FE43A068E268D20642EA002213434B61BF
:101A6C00214A136843F080531360FFF77FF9054652
:101A7C001D4B1B6813F0005F05D1FFF777F9401B76
:101A8C000228F5D90326002E9CD1174A53696169A7
:101A9C000B43536196E7144A126812F4806FAED16F
:101AAC0001268FE7104A126812F4003FA7D10E4AA4
:101ABC00126812F4802FA2D1012683E70126A9E730
:101ACC000948426922F0C06222F4FE42A1682369EF
:101ADC005B08013B5B0643EA01231A434261BFE703
:101AEC0001266FE701266DE7001002402DE9F04159
:101AFC0082B00446036813F4006F33D0836EB3F5E1
:101B0C00000F15D00CD823B3B3F5800F05D10021ED
:101B1C002030FFF747FF064620E001273E4623E032
:101B2C00B3F5400F01D1002608E001273E461BE02B
:101B3C005E4AD36843F48033D36000265B4AD2F804
:101B4C00883023F44003A16E0B43C2F88830002781
:101B5C000AE000210430FFF76DFE0646002EEDD0A2
:101B6C00374601E000273E46236813F4805F30D0EF
:101B7C00E36EB3F1007F1FD00DD81BB3B3F1807FA0
:101B8C0006D1002104F12000FFF70CFF064605E00A
:101B9C0001273E461DE0B3F1407F0AD1C6B9434A46
:101BAC00D2F8883023F04073E16E0B43C2F88830D2
:101BBC000FE001273E460CE03C4AD36843F48033E7
:101BCC00D360EBE70021201DFFF734FE0646E5E766
:101BDC003746236813F4003F71D0344B9B6D13F0E0
:101BEC00805F4ED1314B9A6D42F080529A659B6D5D
:101BFC0003F080530193019B4FF001082C4A1368AA
:101C0C0043F480731360FFF7B1F80546284B1B684B
:101C1C0013F4807F05D1FFF7A9F8401B0228F5D9F2
:101C2C000326002E46D1214BD3F8903013F4407389
:101C3C0016D0D4F888209A4212D01C4AD2F8903090
:101C4C0023F44073D2F8901041F48031C2F8901014
:101C5C00D2F8901021F48031C2F89010C2F8903074
:101C6C0013F0010F10D1002E40F035810F4AD2F83D
:101C7C00903023F44073D4F888100B43C2F89030A2
:101C8C0019E04FF00008B9E7FFF770F80546074B6D
:101C9C00D3F8903013F0020FE5D1FFF767F8401B33
:101CAC0041F288339842F2D90326DCE70010024057
:101CBC00007000403746B8F1000F40F00E812368E9
:101CCC0013F0010F08D0A44AD2F8883023F0030394
:101CDC00A16B0B43C2F88830236813F0020F08D0B5
:101CEC009D4AD2F8883023F00C03E16B0B43C2F809
:101CFC008830236813F0040F08D0974AD2F8883044
:101D0C0023F03003216C0B43C2F88830236813F0A6
:101D1C00080F08D0904AD2F8883023F0C003616CC9
:101D2C000B43C2F88830236813F0100F08D08A4A8E
:101D3C00D2F8883023F44073A16C0B43C2F888307E
:101D4C00236813F0200F08D0834AD2F8883023F48C
:101D5C004063E16C0B43C2F88830236813F4007FB6
:101D6C0008D07D4AD2F8883023F44023216E0B43EF
:101D7C00C2F88830236813F4806F08D0764AD2F802
:101D8C00883023F44013616E0B43C2F8883023680B
:101D9C0013F0400F08D0704AD2F8883023F4405327
:101DAC00216D0B43C2F88830236813F0800F08D0E4
:101DBC00694AD2F8883023F44043616D0B43C2F872
:101DCC008830236813F4807F08D0634AD2F88830B7
:101DDC0023F44033A16D0B43C2F88830236813F40D
:101DEC00801F08D05C4AD2F89C3023F00303E16DCD
:101DFC000B43C2F89C30236813F4005F0FD0564A93
:101E0C00D2F8883023F04063216F0B43C2F888303E
:101E1C00236FB3F1006F66D0B3F1806F68D0236885
:101E2C0013F4002F0FD04C4AD2F8883023F04063C3
:101E3C00616F0B43C2F88830636FB3F1006F5FD0F2
:101E4C00B3F1806F61D0236813F4802F0FD0424A16
:101E5C00D2F8883023F04063A16F0B43C2F888306E
:101E6C00A36FB3F1006F58D0B3F1806F5AD02368D1
:101E7C0013F4804F0FD0384AD2F8883023F04053F7
:101E8C00E16F0B43C2F88830E36FB3F1805F51D040
:101E9C00B3F1005F56D0236813F4004F09D02E4ADB
:101EAC00D2F8883023F08043D4F880100B43C2F86A
:101EBC008830236813F4803F09D0274AD2F8883041
:101ECC0023F00043D4F884100B43C2F88830384612
:101EDC0002B0BDE8F0813746EDE61F4A936D23F062
:101EEC0080539365EBE6D36843F48013D36096E795
:101EFC000121201DFFF79EFC002890D007468EE79D
:101F0C00D36843F48013D3609DE70121201DFFF7B4
:101F1C0091FC002897D0074695E7D36843F48013CB
:101F2C00D360A4E70121201DFFF784FC00289ED07C
:101F3C0007469CE70221201DFFF77CFC0028AAD055
:101F4C000746A8E7022104F12000FFF72BFD00282B
:101F5C00A1D007469FE700BF0010024010B40468F0
:101F6C0091FAA1F3A3B1B3FA83F35B004FF0030C26
:101F7C000CFA03F324EA030391FAA1F151B1B1FA7B
:101F8C0081F149008A40134303605DF8044B7047AC
:101F9C002023EAE72021F4E710B4846891FAA1F336
:101FAC00A3B1B3FA83F35B004FF0030C0CFA03F309
:101FBC0024EA030391FAA1F151B1B1FA81F149007C
:101FCC008A40134383605DF8044B70472023EAE793
:101FDC002021F4E710B4C46891FAA1F3A3B1B3FAC9
:101FEC0083F35B004FF0030C0CFA03F324EA0303B6
:101FFC0091FAA1F151B1B1FA81F149008A40134330
:10200C00C3605DF8044B70472023EAE72021F4E716
:10201C0010B4046A91FAA1F3A3B1B3FA83F39B0051
:10202C004FF00F0C0CFA03F324EA030391FAA1F11D
:10203C0051B1B1FA81F189008A40134303625DF812
:10204C00044B70472023EAE72021F4E710B4446ADC
:10205C00090A91FAA1F3A3B1B3FA83F39B004FF0F1
:10206C000F0C0CFA03F324EA030491FAA1F151B119
:10207C00B1FA81F189008A40144344625DF8044B43
:10208C0070472023EAE72021F4E7F8B507460E460F
:10209C000D6895FAA5F515B1B5FA85F51BE0202567
:1020AC0019E0B26821463846FFF776FF3268F168CE
:1020BC007B6823EA020301FB02F213437B6016E008
:1020CC00726921463846FFF7C1FF726821463846CF
:1020DC00FFF744FF0135346834FA05F217D00122BA
:1020EC00AA401440F6D07368013B012BD9D9326950
:1020FC0021463846FFF76EFF7368022BE5D1FF2CA3
:10210C00DED8726921463846FFF782FFDDE70020F2
:10211C00F8BD10B4036823F0010303608A680368F8
:10212C0023F4F853CC6842EA0422134303604B684F
:10213C000361036843F001030360836823F40043E5
:10214C0083600A6983686FF30A038C692243134323
:10215C0083600B691BB1836843F4004383600B6895
:10216C00026822F44012134303604B69426822F464
:10217C0000421343436000205DF8044B704782B06B
:10218C004FF0E0231B690193019BB0F1FF3F00D09E
:10219C00013038B14FF0E0231B6913F4803FF8D0C5
:1021AC000138F6E702B07047F8B500BFF8BC08BCC0
:1021BC009E467047F8B500BFF8BC08BC9E467047F9
:1021CC00A0860100400D0300801A060000350C00AB
:1021DC0040420F0080841E0000093D0000127A006E
:1021EC000024F40000366E010048E801006CDC02AB
:1021FC0000000000000000000102030406070809AB
:08220C00A0DFFF7F01000000CC
:042214002502000897
:04221800FD010008BC
:10221C00526573706F6E73652066726F6D204932F4
:10222C00433220536C6176652100000000000000F1
:10223C0048656C6C6F2066726F6D2049324331209B
:10224C004D617374657221000000000000000000F5
:0C225C0000093D0001000000100000001F
:04000005080002A14C
:00000001FF
